{
  "address": "0x0a769c3a5179c0d86b83363e162E9c8e45567096",
  "abi": [
    {
      "inputs": [
        {
          "internalType": "address",
          "name": "_withdrawAddress",
          "type": "address"
        },
        {
          "internalType": "uint256",
          "name": "_mintPassPrice",
          "type": "uint256"
        },
        {
          "internalType": "uint256",
          "name": "_limit",
          "type": "uint256"
        }
      ],
      "stateMutability": "nonpayable",
      "type": "constructor"
    },
    {
      "anonymous": false,
      "inputs": [
        {
          "indexed": false,
          "internalType": "uint256",
          "name": "",
          "type": "uint256"
        },
        {
          "indexed": false,
          "internalType": "uint256",
          "name": "",
          "type": "uint256"
        }
      ],
      "name": "LogChangeMintPassLimit",
      "type": "event"
    },
    {
      "anonymous": false,
      "inputs": [
        {
          "indexed": false,
          "internalType": "address",
          "name": "",
          "type": "address"
        },
        {
          "indexed": false,
          "internalType": "uint256",
          "name": "",
          "type": "uint256"
        }
      ],
      "name": "LogChangeMintPassPrice",
      "type": "event"
    },
    {
      "anonymous": false,
      "inputs": [
        {
          "indexed": false,
          "internalType": "address",
          "name": "",
          "type": "address"
        },
        {
          "indexed": false,
          "internalType": "address",
          "name": "",
          "type": "address"
        }
      ],
      "name": "LogChangeWithdrawAddress",
      "type": "event"
    },
    {
      "anonymous": false,
      "inputs": [
        {
          "indexed": false,
          "internalType": "string",
          "name": "",
          "type": "string"
        },
        {
          "indexed": false,
          "internalType": "address",
          "name": "",
          "type": "address"
        },
        {
          "indexed": false,
          "internalType": "address",
          "name": "",
          "type": "address"
        },
        {
          "indexed": false,
          "internalType": "string",
          "name": "",
          "type": "string"
        }
      ],
      "name": "LogClaimFounder",
      "type": "event"
    },
    {
      "anonymous": false,
      "inputs": [
        {
          "indexed": false,
          "internalType": "string",
          "name": "",
          "type": "string"
        },
        {
          "indexed": false,
          "internalType": "address",
          "name": "",
          "type": "address"
        },
        {
          "indexed": false,
          "internalType": "address",
          "name": "",
          "type": "address"
        }
      ],
      "name": "LogClaimFreeMintPass",
      "type": "event"
    },
    {
      "anonymous": false,
      "inputs": [
        {
          "indexed": false,
          "internalType": "string",
          "name": "",
          "type": "string"
        },
        {
          "indexed": false,
          "internalType": "address",
          "name": "",
          "type": "address"
        },
        {
          "indexed": false,
          "internalType": "address",
          "name": "",
          "type": "address"
        }
      ],
      "name": "LogClaimMintPass",
      "type": "event"
    },
    {
      "anonymous": false,
      "inputs": [
        {
          "indexed": false,
          "internalType": "address",
          "name": "",
          "type": "address"
        },
        {
          "indexed": false,
          "internalType": "uint256",
          "name": "",
          "type": "uint256"
        }
      ],
      "name": "LogWithdraw",
      "type": "event"
    },
    {
      "anonymous": false,
      "inputs": [
        {
          "indexed": true,
          "internalType": "address",
          "name": "previousOwner",
          "type": "address"
        },
        {
          "indexed": true,
          "internalType": "address",
          "name": "newOwner",
          "type": "address"
        }
      ],
      "name": "OwnershipTransferred",
      "type": "event"
    },
    {
      "anonymous": false,
      "inputs": [
        {
          "indexed": false,
          "internalType": "address",
          "name": "account",
          "type": "address"
        }
      ],
      "name": "Paused",
      "type": "event"
    },
    {
      "anonymous": false,
      "inputs": [
        {
          "indexed": false,
          "internalType": "address",
          "name": "account",
          "type": "address"
        }
      ],
      "name": "Unpaused",
      "type": "event"
    },
    {
      "inputs": [
        {
          "internalType": "uint256",
          "name": "",
          "type": "uint256"
        }
      ],
      "name": "accPwdHashArray",
      "outputs": [
        {
          "internalType": "string",
          "name": "",
          "type": "string"
        }
      ],
      "stateMutability": "view",
      "type": "function"
    },
    {
      "inputs": [
        {
          "internalType": "string",
          "name": "accPwdHash",
          "type": "string"
        }
      ],
      "name": "burnMintPass",
      "outputs": [],
      "stateMutability": "nonpayable",
      "type": "function"
    },
    {
      "inputs": [
        {
          "internalType": "address",
          "name": "_newContractAddress",
          "type": "address"
        }
      ],
      "name": "changeFounderAddress",
      "outputs": [],
      "stateMutability": "nonpayable",
      "type": "function"
    },
    {
      "inputs": [
        {
          "internalType": "uint256",
          "name": "tokenId",
          "type": "uint256"
        },
        {
          "internalType": "string",
          "name": "paramsStr",
          "type": "string"
        }
      ],
      "name": "changeFounderParams",
      "outputs": [],
      "stateMutability": "nonpayable",
      "type": "function"
    },
    {
      "inputs": [
        {
          "internalType": "address",
          "name": "_newContractAddress",
          "type": "address"
        }
      ],
      "name": "changeMintPassAddress",
      "outputs": [],
      "stateMutability": "nonpayable",
      "type": "function"
    },
    {
      "inputs": [
        {
          "internalType": "uint256",
          "name": "_limit",
          "type": "uint256"
        }
      ],
      "name": "changeMintPassLimit",
      "outputs": [],
      "stateMutability": "nonpayable",
      "type": "function"
    },
    {
      "inputs": [
        {
          "internalType": "uint256",
          "name": "_price",
          "type": "uint256"
        }
      ],
      "name": "changeMintPassPrice",
      "outputs": [],
      "stateMutability": "nonpayable",
      "type": "function"
    },
    {
      "inputs": [
        {
          "internalType": "address",
          "name": "_withdrawAddress",
          "type": "address"
        }
      ],
      "name": "changeWithdrawAddress",
      "outputs": [],
      "stateMutability": "nonpayable",
      "type": "function"
    },
    {
      "inputs": [],
      "name": "founder",
      "outputs": [
        {
          "internalType": "contract NFTFounder",
          "name": "",
          "type": "address"
        }
      ],
      "stateMutability": "view",
      "type": "function"
    },
    {
      "inputs": [],
      "name": "getBalance",
      "outputs": [
        {
          "internalType": "uint256",
          "name": "",
          "type": "uint256"
        }
      ],
      "stateMutability": "view",
      "type": "function"
    },
    {
      "inputs": [
        {
          "internalType": "string",
          "name": "accPwdHash",
          "type": "string"
        }
      ],
      "name": "getFounderTokenIds",
      "outputs": [
        {
          "internalType": "uint256[]",
          "name": "",
          "type": "uint256[]"
        }
      ],
      "stateMutability": "view",
      "type": "function"
    },
    {
      "inputs": [
        {
          "internalType": "string",
          "name": "accPwdHash",
          "type": "string"
        }
      ],
      "name": "getMintPassTokenIds",
      "outputs": [
        {
          "internalType": "uint256[]",
          "name": "",
          "type": "uint256[]"
        }
      ],
      "stateMutability": "view",
      "type": "function"
    },
    {
      "inputs": [
        {
          "internalType": "string",
          "name": "accPwdHash",
          "type": "string"
        }
      ],
      "name": "hasFounderNFT",
      "outputs": [
        {
          "internalType": "bool",
          "name": "",
          "type": "bool"
        }
      ],
      "stateMutability": "view",
      "type": "function"
    },
    {
      "inputs": [
        {
          "internalType": "string",
          "name": "accPwdHash",
          "type": "string"
        }
      ],
      "name": "hasMintPass",
      "outputs": [
        {
          "internalType": "bool",
          "name": "",
          "type": "bool"
        }
      ],
      "stateMutability": "view",
      "type": "function"
    },
    {
      "inputs": [
        {
          "internalType": "string",
          "name": "accPwdHash",
          "type": "string"
        },
        {
          "internalType": "address",
          "name": "hWallet",
          "type": "address"
        },
        {
          "internalType": "string",
          "name": "pattern",
          "type": "string"
        }
      ],
      "name": "mintFounder",
      "outputs": [],
      "stateMutability": "nonpayable",
      "type": "function"
    },
    {
      "inputs": [],
      "name": "mintPass",
      "outputs": [
        {
          "internalType": "contract NFTMintPass",
          "name": "",
          "type": "address"
        }
      ],
      "stateMutability": "view",
      "type": "function"
    },
    {
      "inputs": [
        {
          "internalType": "string",
          "name": "accPwdHash",
          "type": "string"
        },
        {
          "internalType": "address",
          "name": "to",
          "type": "address"
        },
        {
          "internalType": "string",
          "name": "pattern",
          "type": "string"
        }
      ],
      "name": "mintPassFreeMint",
      "outputs": [],
      "stateMutability": "nonpayable",
      "type": "function"
    },
    {
      "inputs": [],
      "name": "mintPassLimit",
      "outputs": [
        {
          "internalType": "uint256",
          "name": "",
          "type": "uint256"
        }
      ],
      "stateMutability": "view",
      "type": "function"
    },
    {
      "inputs": [
        {
          "internalType": "string",
          "name": "accPwdHash",
          "type": "string"
        },
        {
          "internalType": "string",
          "name": "pattern",
          "type": "string"
        }
      ],
      "name": "mintPassMint",
      "outputs": [],
      "stateMutability": "payable",
      "type": "function"
    },
    {
      "inputs": [],
      "name": "mintPassPrice",
      "outputs": [
        {
          "internalType": "uint256",
          "name": "",
          "type": "uint256"
        }
      ],
      "stateMutability": "view",
      "type": "function"
    },
    {
      "inputs": [
        {
          "internalType": "string",
          "name": "accPwdHash",
          "type": "string"
        },
        {
          "internalType": "address",
          "name": "hWallet",
          "type": "address"
        },
        {
          "internalType": "string",
          "name": "pattern",
          "type": "string"
        }
      ],
      "name": "mintingEvent",
      "outputs": [],
      "stateMutability": "nonpayable",
      "type": "function"
    },
    {
      "inputs": [],
      "name": "owner",
      "outputs": [
        {
          "internalType": "address",
          "name": "",
          "type": "address"
        }
      ],
      "stateMutability": "view",
      "type": "function"
    },
    {
      "inputs": [],
      "name": "pause",
      "outputs": [],
      "stateMutability": "nonpayable",
      "type": "function"
    },
    {
      "inputs": [],
      "name": "paused",
      "outputs": [
        {
          "internalType": "bool",
          "name": "",
          "type": "bool"
        }
      ],
      "stateMutability": "view",
      "type": "function"
    },
    {
      "inputs": [
        {
          "internalType": "string",
          "name": "accPwdHash",
          "type": "string"
        },
        {
          "internalType": "address",
          "name": "sWallet",
          "type": "address"
        },
        {
          "internalType": "address",
          "name": "hWallet",
          "type": "address"
        }
      ],
      "name": "pushUserData",
      "outputs": [],
      "stateMutability": "nonpayable",
      "type": "function"
    },
    {
      "inputs": [],
      "name": "renounceOwnership",
      "outputs": [],
      "stateMutability": "nonpayable",
      "type": "function"
    },
    {
      "inputs": [
        {
          "internalType": "address",
          "name": "newOwner",
          "type": "address"
        }
      ],
      "name": "transferFounderContractOwner",
      "outputs": [],
      "stateMutability": "nonpayable",
      "type": "function"
    },
    {
      "inputs": [
        {
          "internalType": "address",
          "name": "newOwner",
          "type": "address"
        }
      ],
      "name": "transferMintPassContractOwner",
      "outputs": [],
      "stateMutability": "nonpayable",
      "type": "function"
    },
    {
      "inputs": [
        {
          "internalType": "address",
          "name": "newOwner",
          "type": "address"
        }
      ],
      "name": "transferOwnership",
      "outputs": [],
      "stateMutability": "nonpayable",
      "type": "function"
    },
    {
      "inputs": [],
      "name": "unpause",
      "outputs": [],
      "stateMutability": "nonpayable",
      "type": "function"
    },
    {
      "inputs": [
        {
          "internalType": "string",
          "name": "",
          "type": "string"
        }
      ],
      "name": "users",
      "outputs": [
        {
          "internalType": "string",
          "name": "accPwdHash",
          "type": "string"
        },
        {
          "internalType": "address",
          "name": "softwareWallet",
          "type": "address"
        },
        {
          "internalType": "address",
          "name": "hardwareWallet",
          "type": "address"
        }
      ],
      "stateMutability": "view",
      "type": "function"
    },
    {
      "inputs": [],
      "name": "withdraw",
      "outputs": [],
      "stateMutability": "nonpayable",
      "type": "function"
    },
    {
      "inputs": [],
      "name": "withdrawAddress",
      "outputs": [
        {
          "internalType": "address",
          "name": "",
          "type": "address"
        }
      ],
      "stateMutability": "view",
      "type": "function"
    }
  ],
  "transactionHash": "0xc23fe5ddd0fc5684f94f9296c39094f575235f97869294b74f76e73e35c248c9",
  "args": [
    "0x30B8277e08a6DaebFDC73239FB6973Fcc484d11A",
    "24000000000000000000",
    24
  ],
  "numDeployments": 1,
  "solcInputHash": "12e5757678e57757a0e1740f8a844d85",
  "bytecode": "0x60806040523480156200001157600080fd5b50604051620029b9380380620029b98339810160408190526200003491620000c9565b6200003f3362000079565b6000805460ff60a01b19169055600380546001600160a01b0319166001600160a01b0394909416939093179092556004556005556200010e565b600080546001600160a01b038381166001600160a01b0319831681178455604051919092169283917f8be0079c531659141344cd1fd0a4f28419497f9722a3daafe3b4186f6b6457e09190a35050565b600080600060608486031215620000df57600080fd5b83516001600160a01b0381168114620000f757600080fd5b602085015160409095015190969495509392505050565b61289b806200011e6000396000f3fe6080604052600436106101e35760003560e01c80635d23cd08116101025780638da5cb5b11610095578063e477ef9711610064578063e477ef9714610577578063f2d75e8914610597578063f2fde38b146105b7578063f95d0d03146105d757600080fd5b80638da5cb5b146104f957806395d2557814610517578063c5a32eb214610537578063d78902ea1461055757600080fd5b8063749679c3116100d1578063749679c31461048e578063817645eb146104ae5780638456cb59146104ce5780638b496d4d146104e357600080fd5b80635d23cd081461040a578063689e1c031461042a578063715018a614610459578063732404221461046e57600080fd5b80632e2ea2791161017a5780633ccfd60b116101495780633ccfd60b146103a15780633f4ba83a146103b65780634d853ee5146103cb5780635c975abb146103eb57600080fd5b80632e2ea2791461030457806338151deb146103315780633ac7bfe8146103615780633ba5c1f01461038157600080fd5b806319a2dbe4116101b657806319a2dbe4146102775780632272df6714610297578063297bcc5c146102b75780632aff3f2f146102e457600080fd5b80630fc8096f146101e857806312065fe0146101fd5780631453671d1461021f5780631581b6001461023f575b600080fd5b6101fb6101f636600461225a565b6105ed565b005b34801561020957600080fd5b50475b6040519081526020015b60405180910390f35b34801561022b57600080fd5b506101fb61023a3660046122d3565b610a39565b34801561024b57600080fd5b5060035461025f906001600160a01b031681565b6040516001600160a01b039091168152602001610216565b34801561028357600080fd5b506101fb6102923660046122f7565b610ab2565b3480156102a357600080fd5b506101fb6102b23660046122d3565b610d5e565b3480156102c357600080fd5b506102d76102d236600461236f565b610d90565b60405161021691906123d8565b3480156102f057600080fd5b506101fb6102ff3660046122d3565b610e3c565b34801561031057600080fd5b5061032461031f3660046123eb565b610f3a565b6040516102169190612428565b34801561033d57600080fd5b5061035161034c3660046123eb565b611115565b6040519015158152602001610216565b34801561036d57600080fd5b506101fb61037c3660046122d3565b611130565b34801561038d57600080fd5b506101fb61039c3660046122f7565b611162565b3480156103ad57600080fd5b506101fb6112ec565b3480156103c257600080fd5b506101fb611471565b3480156103d757600080fd5b5060015461025f906001600160a01b031681565b3480156103f757600080fd5b50600054600160a01b900460ff16610351565b34801561041657600080fd5b506101fb6104253660046122d3565b611483565b34801561043657600080fd5b5061044a6104453660046123eb565b611550565b6040516102169392919061246c565b34801561046557600080fd5b506101fb611612565b34801561047a57600080fd5b506101fb61048936600461249f565b611624565b34801561049a57600080fd5b5060025461025f906001600160a01b031681565b3480156104ba57600080fd5b506101fb6104c93660046123eb565b61170c565b3480156104da57600080fd5b506101fb61193a565b3480156104ef57600080fd5b5061020c60045481565b34801561050557600080fd5b506000546001600160a01b031661025f565b34801561052357600080fd5b506101fb61053236600461236f565b61194a565b34801561054357600080fd5b506101fb61055236600461236f565b6119a2565b34801561056357600080fd5b506103246105723660046123eb565b6119f3565b34801561058357600080fd5b506103516105923660046123eb565b611b98565b3480156105a357600080fd5b506101fb6105b23660046122f7565b611bd8565b3480156105c357600080fd5b506101fb6105d23660046122d3565b611f09565b3480156105e357600080fd5b5061020c60055481565b6105f5611f7f565b60025460408051638da5cb5b60e01b8152905130926001600160a01b031691638da5cb5b9160048083019260209291908290030181865afa15801561063e573d6000803e3d6000fd5b505050506040513d601f19601f820116820180604052508101906106629190612503565b6001600160a01b0316146106915760405162461bcd60e51b815260040161068890612520565b60405180910390fd5b6004543410156106d45760405162461bcd60e51b815260206004820152600e60248201526d50726963652069732077726f6e6760901b6044820152606401610688565b3361071a5760405162461bcd60e51b8152602060048201526016602482015275496e76616c69642073656e646572206164647265737360501b6044820152606401610688565b600554600260009054906101000a90046001600160a01b03166001600160a01b03166318160ddd6040518163ffffffff1660e01b8152600401602060405180830381865afa158015610770573d6000803e3d6000fd5b505050506040513d601f19601f820116820180604052508101906107949190612571565b106107b15760405162461bcd60e51b81526004016106889061258a565b6108626006836040516107c491906125cb565b90815260405190819003602001902080546107de906125e7565b80601f016020809104026020016040519081016040528092919081815260200182805461080a906125e7565b80156108575780601f1061082c57610100808354040283529160200191610857565b820191906000526020600020905b81548152906001019060200180831161083a57829003601f168201915b505050505083611fcc565b156108c35760405162461bcd60e51b815260206004820152602b60248201527f54686973206163636f756e742068617320636c61696d6564206d696e7420706160448201526a737320726563656e746c7960a81b6064820152608401610688565b7ff5a22f8701b10682fe480d99e8b0dce28f0415f08aad7255cf7dbb7277d965948233336040516108f69392919061246c565b60405180910390a160405180606001604052808381526020016109163390565b6001600160a01b03168152600060209091015260405160069061093a9085906125cb565b908152604051908190036020019020815181906109579082612667565b506020820151600180830180546001600160a01b039384166001600160a01b0319918216179091556040909401516002909301805493909216929093169190911790556007805491820181556000527fa66cc928b5edb82af9bd49922954155ab7b0942694bea4ce44661d9a8736c688016109d28382612667565b506002546001600160a01b031663d204c45e33836040518363ffffffff1660e01b8152600401610a03929190612727565b600060405180830381600087803b158015610a1d57600080fd5b505af1158015610a31573d6000803e3d6000fd5b505050505050565b610a41611f7f565b610a49612025565b600354604080516001600160a01b03928316815291831660208301527f1366b6126a67fc1add198ab67f11327df07ee74ddd890394b268c841e29dbd7d910160405180910390a1600380546001600160a01b0319166001600160a01b0392909216919091179055565b610aba611f7f565b610ac2612025565b60025460408051638da5cb5b60e01b8152905130926001600160a01b031691638da5cb5b9160048083019260209291908290030181865afa158015610b0b573d6000803e3d6000fd5b505050506040513d601f19601f82011682018060405250810190610b2f9190612503565b6001600160a01b031614610b555760405162461bcd60e51b815260040161068890612520565b60015460408051638da5cb5b60e01b8152905130926001600160a01b031691638da5cb5b9160048083019260209291908290030181865afa158015610b9e573d6000803e3d6000fd5b505050506040513d601f19601f82011682018060405250810190610bc29190612503565b6001600160a01b031614610be85760405162461bcd60e51b81526004016106889061274b565b610c99600684604051610bfb91906125cb565b9081526040519081900360200190208054610c15906125e7565b80601f0160208091040260200160405190810160405280929190818152602001828054610c41906125e7565b8015610c8e5780601f10610c6357610100808354040283529160200191610c8e565b820191906000526020600020905b815481529060010190602001808311610c7157829003601f168201915b505050505084611fcc565b610cb55760405162461bcd60e51b81526004016106889061279e565b60006001600160a01b0316600684604051610cd091906125cb565b908152604051908190036020019020600201546001600160a01b031614610d455760405162461bcd60e51b815260206004820152602360248201527f74686973206163636f756e742068617320636c61696d6564206d656d6265727360448201526206869760ec1b6064820152608401610688565b610d4e8361170c565b610d59838383611162565b505050565b610d66611f7f565b610d6e612025565b600180546001600160a01b0319166001600160a01b0392909216919091179055565b60078181548110610da057600080fd5b906000526020600020016000915090508054610dbb906125e7565b80601f0160208091040260200160405190810160405280929190818152602001828054610de7906125e7565b8015610e345780601f10610e0957610100808354040283529160200191610e34565b820191906000526020600020905b815481529060010190602001808311610e1757829003601f168201915b505050505081565b610e44612025565b60025460408051638da5cb5b60e01b8152905130926001600160a01b031691638da5cb5b9160048083019260209291908290030181865afa158015610e8d573d6000803e3d6000fd5b505050506040513d601f19601f82011682018060405250810190610eb19190612503565b6001600160a01b031614610ed75760405162461bcd60e51b815260040161068890612520565b60025460405163f2fde38b60e01b81526001600160a01b0383811660048301529091169063f2fde38b906024015b600060405180830381600087803b158015610f1f57600080fd5b505af1158015610f33573d6000803e3d6000fd5b5050505050565b60606000600683604051610f4e91906125cb565b908152604051908190036020019020600101546001600160a01b0316905080610fa55760005b604051908082528060200260200182016040528015610f9d578160200160208202803683370190505b509392505050565b6002546040516370a0823160e01b81526001600160a01b03838116600483015260009216906370a0823190602401602060405180830381865afa158015610ff0573d6000803e3d6000fd5b505050506040513d601f19601f820116820180604052508101906110149190612571565b905060008167ffffffffffffffff811115611031576110316121b7565b60405190808252806020026020018201604052801561105a578160200160208202803683370190505b50905060005b8281101561110c57600254604051632f745c5960e01b81526001600160a01b0386811660048301526024820184905290911690632f745c5990604401602060405180830381865afa1580156110b9573d6000803e3d6000fd5b505050506040513d601f19601f820116820180604052508101906110dd9190612571565b8282815181106110ef576110ef6127e1565b602090810291909101015280611104816127f7565b915050611060565b50949350505050565b600061112a6006836040516107c491906125cb565b92915050565b611138611f7f565b611140612025565b600280546001600160a01b0319166001600160a01b0392909216919091179055565b61116a612025565b60015460408051638da5cb5b60e01b8152905130926001600160a01b031691638da5cb5b9160048083019260209291908290030181865afa1580156111b3573d6000803e3d6000fd5b505050506040513d601f19601f820116820180604052508101906111d79190612503565b6001600160a01b0316146111fd5760405162461bcd60e51b81526004016106889061274b565b8160068460405161120e91906125cb565b90815260405190819003602001902060020180546001600160a01b03929092166001600160a01b03199092169190911790557f760baae4d6bf4ebc21144103f6679580efbbabcc597118b9ffa838aaf358c235836112693390565b848460405161127b949392919061281e565b60405180910390a1600154604051636902622f60e11b81526001600160a01b039091169063d204c45e906112b59085908590600401612727565b600060405180830381600087803b1580156112cf57600080fd5b505af11580156112e3573d6000803e3d6000fd5b50505050505050565b6000471161134b5760405162461bcd60e51b815260206004820152602660248201527f576974686472617720616d6f756e74206d75737420626520677265617465722060448201526507468616e20360d41b6064820152608401610688565b336113985760405162461bcd60e51b815260206004820152601860248201527f496e76616c69642073656e6465722061646472657373203000000000000000006044820152606401610688565b6003546001600160a01b031633146114005760405162461bcd60e51b815260206004820152602560248201527f596f7520646f6e27742068617665207065726d697373696f6e20746f20776974604482015264686472617760d81b6064820152608401610688565b7f4ce7033d118120e254016dccf195288400b28fc8936425acd5f17ce2df3ab70833604080516001600160a01b0390921682524760208301520160405180910390a160405133904780156108fc02916000818181858888f1935050505015801561146e573d6000803e3d6000fd5b50565b611479612025565b61148161207f565b565b61148b612025565b60015460408051638da5cb5b60e01b8152905130926001600160a01b031691638da5cb5b9160048083019260209291908290030181865afa1580156114d4573d6000803e3d6000fd5b505050506040513d601f19601f820116820180604052508101906114f89190612503565b6001600160a01b03161461151e5760405162461bcd60e51b81526004016106889061274b565b60015460405163f2fde38b60e01b81526001600160a01b0383811660048301529091169063f2fde38b90602401610f05565b8051602081830181018051600682529282019190930120915280548190611576906125e7565b80601f01602080910402602001604051908101604052809291908181526020018280546115a2906125e7565b80156115ef5780601f106115c4576101008083540402835291602001916115ef565b820191906000526020600020905b8154815290600101906020018083116115d257829003601f168201915b50505050600183015460029093015491926001600160a01b039081169216905083565b61161a612025565b61148160006120d4565b61162c611f7f565b611634612025565b600780546001810182556000919091527fa66cc928b5edb82af9bd49922954155ab7b0942694bea4ce44661d9a8736c688016116708482612667565b506040518060600160405280848152602001836001600160a01b03168152602001826001600160a01b03168152506006846040516116ae91906125cb565b908152604051908190036020019020815181906116cb9082612667565b5060208201516001820180546001600160a01b03199081166001600160a01b0393841617909155604090930151600290920180549093169116179055505050565b611714612025565b60025460408051638da5cb5b60e01b8152905130926001600160a01b031691638da5cb5b9160048083019260209291908290030181865afa15801561175d573d6000803e3d6000fd5b505050506040513d601f19601f820116820180604052508101906117819190612503565b6001600160a01b0316146117a75760405162461bcd60e51b815260040161068890612520565b60006006826040516117b991906125cb565b908152604051908190036020018120600101546002546370a0823160e01b83526001600160a01b039182166004840181905293506000929116906370a0823190602401602060405180830381865afa158015611819573d6000803e3d6000fd5b505050506040513d601f19601f8201168201806040525081019061183d9190612571565b90506000811161185f5760405162461bcd60e51b81526004016106889061279e565b600254604051632f745c5960e01b81526001600160a01b038481166004830152600060248301819052921690632f745c5990604401602060405180830381865afa1580156118b1573d6000803e3d6000fd5b505050506040513d601f19601f820116820180604052508101906118d59190612571565b600254604051630852cd8d60e31b8152600481018390529192506001600160a01b0316906342966c6890602401600060405180830381600087803b15801561191c57600080fd5b505af1158015611930573d6000803e3d6000fd5b5050505050505050565b611942612025565b611481612124565b611952611f7f565b61195a612025565b7fc003a075eab62a1cdfa9ff346142326cedc7647878707a2f252cbe769ae885dc33604080516001600160a01b039092168252602082018490520160405180910390a1600455565b6119aa611f7f565b6119b2612025565b60055460408051918252602082018390527f95a493dc2389bd4bf561dbb4113697e13067e9e4562c1442313108500e52f6a4910160405180910390a1600555565b60606000600683604051611a0791906125cb565b908152604051908190036020019020600201546001600160a01b0316905080611a31576000610f74565b6001546040516370a0823160e01b81526001600160a01b03838116600483015260009216906370a0823190602401602060405180830381865afa158015611a7c573d6000803e3d6000fd5b505050506040513d601f19601f82011682018060405250810190611aa09190612571565b905060008167ffffffffffffffff811115611abd57611abd6121b7565b604051908082528060200260200182016040528015611ae6578160200160208202803683370190505b50905060005b8281101561110c57600154604051632f745c5960e01b81526001600160a01b0386811660048301526024820184905290911690632f745c5990604401602060405180830381865afa158015611b45573d6000803e3d6000fd5b505050506040513d601f19601f82011682018060405250810190611b699190612571565b828281518110611b7b57611b7b6127e1565b602090810291909101015280611b90816127f7565b915050611aec565b6000806001600160a01b0316600683604051611bb491906125cb565b908152604051908190036020019020600201546001600160a01b0316141592915050565b611be0611f7f565b611be8612025565b6001600160a01b038216611c335760405162461bcd60e51b8152602060048201526012602482015271496e76616c696420746f206164647265737360701b6044820152606401610688565b611c46600684604051610bfb91906125cb565b15611ca75760405162461bcd60e51b815260206004820152602b60248201527f74686973206163636f756e742068617320636c61696d6564206d696e7420706160448201526a737320726563656e746c7960a81b6064820152608401610688565b600554600260009054906101000a90046001600160a01b03166001600160a01b03166318160ddd6040518163ffffffff1660e01b8152600401602060405180830381865afa158015611cfd573d6000803e3d6000fd5b505050506040513d601f19601f82011682018060405250810190611d219190612571565b10611d3e5760405162461bcd60e51b81526004016106889061258a565b60025460408051638da5cb5b60e01b8152905130926001600160a01b031691638da5cb5b9160048083019260209291908290030181865afa158015611d87573d6000803e3d6000fd5b505050506040513d601f19601f82011682018060405250810190611dab9190612503565b6001600160a01b031614611dd15760405162461bcd60e51b815260040161068890612520565b7f5ba5bc2a3f0d175c8995c9c7c51be858a905bf3e606464ca62e2962cad38439b833384604051611e049392919061246c565b60405180910390a1604080516060810182528481526001600160a01b03841660208201526000818301529051600690611e3e9086906125cb565b90815260405190819003602001902081518190611e5b9082612667565b506020820151600180830180546001600160a01b039384166001600160a01b0319918216179091556040909401516002909301805493909216929093169190911790556007805491820181556000527fa66cc928b5edb82af9bd49922954155ab7b0942694bea4ce44661d9a8736c68801611ed68482612667565b50600254604051636902622f60e11b81526001600160a01b039091169063d204c45e906112b59085908590600401612727565b611f11612025565b6001600160a01b038116611f765760405162461bcd60e51b815260206004820152602660248201527f4f776e61626c653a206e6577206f776e657220697320746865207a65726f206160448201526564647265737360d01b6064820152608401610688565b61146e816120d4565b600054600160a01b900460ff16156114815760405162461bcd60e51b815260206004820152601060248201526f14185d5cd8589b194e881c185d5cd95960821b6044820152606401610688565b600081604051602001611fdf91906125cb565b604051602081830303815290604052805190602001208360405160200161200691906125cb565b6040516020818303038152906040528051906020012014905092915050565b6000546001600160a01b031633146114815760405162461bcd60e51b815260206004820181905260248201527f4f776e61626c653a2063616c6c6572206973206e6f7420746865206f776e65726044820152606401610688565b612087612167565b6000805460ff60a01b191690557f5db9ee0a495bf2e6ff9c91a7834c1ba4fdd244a5e8aa4e537bd38aeae4b073aa335b6040516001600160a01b03909116815260200160405180910390a1565b600080546001600160a01b038381166001600160a01b0319831681178455604051919092169283917f8be0079c531659141344cd1fd0a4f28419497f9722a3daafe3b4186f6b6457e09190a35050565b61212c611f7f565b6000805460ff60a01b1916600160a01b1790557f62e78cea01bee320cd4e420270b5ea74000d11b0c9f74754ebdbfc544b05a2586120b73390565b600054600160a01b900460ff166114815760405162461bcd60e51b815260206004820152601460248201527314185d5cd8589b194e881b9bdd081c185d5cd95960621b6044820152606401610688565b634e487b7160e01b600052604160045260246000fd5b600082601f8301126121de57600080fd5b813567ffffffffffffffff808211156121f9576121f96121b7565b604051601f8301601f19908116603f01168101908282118183101715612221576122216121b7565b8160405283815286602085880101111561223a57600080fd5b836020870160208301376000602085830101528094505050505092915050565b6000806040838503121561226d57600080fd5b823567ffffffffffffffff8082111561228557600080fd5b612291868387016121cd565b935060208501359150808211156122a757600080fd5b506122b4858286016121cd565b9150509250929050565b6001600160a01b038116811461146e57600080fd5b6000602082840312156122e557600080fd5b81356122f0816122be565b9392505050565b60008060006060848603121561230c57600080fd5b833567ffffffffffffffff8082111561232457600080fd5b612330878388016121cd565b945060208601359150612342826122be565b9092506040850135908082111561235857600080fd5b50612365868287016121cd565b9150509250925092565b60006020828403121561238157600080fd5b5035919050565b60005b838110156123a357818101518382015260200161238b565b50506000910152565b600081518084526123c4816020860160208601612388565b601f01601f19169290920160200192915050565b6020815260006122f060208301846123ac565b6000602082840312156123fd57600080fd5b813567ffffffffffffffff81111561241457600080fd5b612420848285016121cd565b949350505050565b6020808252825182820181905260009190848201906040850190845b8181101561246057835183529284019291840191600101612444565b50909695505050505050565b60608152600061247f60608301866123ac565b6001600160a01b0394851660208401529290931660409091015292915050565b6000806000606084860312156124b457600080fd5b833567ffffffffffffffff8111156124cb57600080fd5b6124d7868287016121cd565b93505060208401356124e8816122be565b915060408401356124f8816122be565b809150509250925092565b60006020828403121561251557600080fd5b81516122f0816122be565b60208082526031908201527f4d696e74207061737320636f6e7472616374206f776e6572206973206e6f742060408201527063757272656e7420636f6e74726163742160781b606082015260800190565b60006020828403121561258357600080fd5b5051919050565b60208082526021908201527f4d696e74207061737320746f74616c20737570706c79206973206c696d6974656040820152601960fa1b606082015260800190565b600082516125dd818460208701612388565b9190910192915050565b600181811c908216806125fb57607f821691505b60208210810361261b57634e487b7160e01b600052602260045260246000fd5b50919050565b601f821115610d5957600081815260208120601f850160051c810160208610156126485750805b601f850160051c820191505b81811015610a3157828155600101612654565b815167ffffffffffffffff811115612681576126816121b7565b6126958161268f84546125e7565b84612621565b602080601f8311600181146126ca57600084156126b25750858301515b600019600386901b1c1916600185901b178555610a31565b600085815260208120601f198616915b828110156126f9578886015182559484019460019091019084016126da565b50858210156127175787850151600019600388901b60f8161c191681555b5050505050600190811b01905550565b6001600160a01b0383168152604060208201819052600090612420908301846123ac565b60208082526033908201527f466f756e646572204e465420636f6e7472616374206f776e6572206973206e6f604082015272742063757272656e7420636f6e74726163742160681b606082015260800190565b60208082526023908201527f74686973206163636f756e7420646f65736e27742068617665206d696e74207060408201526261737360e81b606082015260800190565b634e487b7160e01b600052603260045260246000fd5b60006001820161281757634e487b7160e01b600052601160045260246000fd5b5060010190565b60808152600061283160808301876123ac565b6001600160a01b03868116602085015285166040840152828103606084015261285a81856123ac565b97965050505050505056fea2646970667358221220e13e2a06ba712a7c4dd7971ab59397a38b521504efb344e9a6478e6b8a7e5b1e64736f6c63430008110033",
  "devdoc": {
    "kind": "dev",
    "methods": {
      "owner()": {
        "details": "Returns the address of the current owner."
      },
      "paused()": {
        "details": "Returns true if the contract is paused, and false otherwise."
      },
      "renounceOwnership()": {
        "details": "Leaves the contract without owner. It will not be possible to call `onlyOwner` functions anymore. Can only be called by the current owner. NOTE: Renouncing ownership will leave the contract without an owner, thereby removing any functionality that is only available to the owner."
      },
      "transferOwnership(address)": {
        "details": "Transfers ownership of the contract to a new account (`newOwner`). Can only be called by the current owner."
      }
    },
    "version": 1
  },
  "userdoc": {
    "kind": "user",
    "methods": {},
    "version": 1
  },
  "storageLayout": {
    "storage": [
      {
        "astId": 7,
        "contract": "contracts/Logic.sol:Logic",
        "label": "_owner",
        "offset": 0,
        "slot": "0",
        "type": "t_address"
      },
      {
        "astId": 130,
        "contract": "contracts/Logic.sol:Logic",
        "label": "_paused",
        "offset": 20,
        "slot": "0",
        "type": "t_bool"
      },
      {
        "astId": 3255,
        "contract": "contracts/Logic.sol:Logic",
        "label": "founder",
        "offset": 0,
        "slot": "1",
        "type": "t_contract(NFTFounder)4463"
      },
      {
        "astId": 3258,
        "contract": "contracts/Logic.sol:Logic",
        "label": "mintPass",
        "offset": 0,
        "slot": "2",
        "type": "t_contract(NFTMintPass)4752"
      },
      {
        "astId": 3260,
        "contract": "contracts/Logic.sol:Logic",
        "label": "withdrawAddress",
        "offset": 0,
        "slot": "3",
        "type": "t_address"
      },
      {
        "astId": 3262,
        "contract": "contracts/Logic.sol:Logic",
        "label": "mintPassPrice",
        "offset": 0,
        "slot": "4",
        "type": "t_uint256"
      },
      {
        "astId": 3264,
        "contract": "contracts/Logic.sol:Logic",
        "label": "mintPassLimit",
        "offset": 0,
        "slot": "5",
        "type": "t_uint256"
      },
      {
        "astId": 3298,
        "contract": "contracts/Logic.sol:Logic",
        "label": "users",
        "offset": 0,
        "slot": "6",
        "type": "t_mapping(t_string_memory_ptr,t_struct(User)3293_storage)"
      },
      {
        "astId": 3407,
        "contract": "contracts/Logic.sol:Logic",
        "label": "accPwdHashArray",
        "offset": 0,
        "slot": "7",
        "type": "t_array(t_string_storage)dyn_storage"
      }
    ],
    "types": {
      "t_address": {
        "encoding": "inplace",
        "label": "address",
        "numberOfBytes": "20"
      },
      "t_array(t_string_storage)dyn_storage": {
        "base": "t_string_storage",
        "encoding": "dynamic_array",
        "label": "string[]",
        "numberOfBytes": "32"
      },
      "t_bool": {
        "encoding": "inplace",
        "label": "bool",
        "numberOfBytes": "1"
      },
      "t_contract(NFTFounder)4463": {
        "encoding": "inplace",
        "label": "contract NFTFounder",
        "numberOfBytes": "20"
      },
      "t_contract(NFTMintPass)4752": {
        "encoding": "inplace",
        "label": "contract NFTMintPass",
        "numberOfBytes": "20"
      },
      "t_mapping(t_string_memory_ptr,t_struct(User)3293_storage)": {
        "encoding": "mapping",
        "key": "t_string_memory_ptr",
        "label": "mapping(string => struct Logic.User)",
        "numberOfBytes": "32",
        "value": "t_struct(User)3293_storage"
      },
      "t_string_memory_ptr": {
        "encoding": "bytes",
        "label": "string",
        "numberOfBytes": "32"
      },
      "t_string_storage": {
        "encoding": "bytes",
        "label": "string",
        "numberOfBytes": "32"
      },
      "t_struct(User)3293_storage": {
        "encoding": "inplace",
        "label": "struct Logic.User",
        "members": [
          {
            "astId": 3288,
            "contract": "contracts/Logic.sol:Logic",
            "label": "accPwdHash",
            "offset": 0,
            "slot": "0",
            "type": "t_string_storage"
          },
          {
            "astId": 3290,
            "contract": "contracts/Logic.sol:Logic",
            "label": "softwareWallet",
            "offset": 0,
            "slot": "1",
            "type": "t_address"
          },
          {
            "astId": 3292,
            "contract": "contracts/Logic.sol:Logic",
            "label": "hardwareWallet",
            "offset": 0,
            "slot": "2",
            "type": "t_address"
          }
        ],
        "numberOfBytes": "96"
      },
      "t_uint256": {
        "encoding": "inplace",
        "label": "uint256",
        "numberOfBytes": "32"
      }
    }
  }
}